{
  "_format": "hh-sol-artifact-1",
  "contractName": "PredictionMarket",
  "sourceName": "contracts/PredictionMarket.sol",
  "abi": [
    {
      "inputs": [
        {
          "internalType": "address",
          "name": "_resolver",
          "type": "address"
        }
      ],
      "stateMutability": "nonpayable",
      "type": "constructor"
    },
    {
      "anonymous": false,
      "inputs": [
        {
          "indexed": true,
          "internalType": "uint256",
          "name": "id",
          "type": "uint256"
        },
        {
          "indexed": true,
          "internalType": "address",
          "name": "challenger",
          "type": "address"
        }
      ],
      "name": "DisputeRaised",
      "type": "event"
    },
    {
      "anonymous": false,
      "inputs": [
        {
          "indexed": true,
          "internalType": "uint256",
          "name": "id",
          "type": "uint256"
        },
        {
          "indexed": false,
          "internalType": "string",
          "name": "question",
          "type": "string"
        },
        {
          "indexed": false,
          "internalType": "string",
          "name": "category",
          "type": "string"
        },
        {
          "indexed": false,
          "internalType": "uint256",
          "name": "deadline",
          "type": "uint256"
        },
        {
          "indexed": false,
          "internalType": "address",
          "name": "creator",
          "type": "address"
        },
        {
          "indexed": false,
          "internalType": "uint256",
          "name": "minStake",
          "type": "uint256"
        }
      ],
      "name": "MarketCreated",
      "type": "event"
    },
    {
      "anonymous": false,
      "inputs": [
        {
          "indexed": true,
          "internalType": "uint256",
          "name": "id",
          "type": "uint256"
        },
        {
          "indexed": false,
          "internalType": "bool",
          "name": "outcome",
          "type": "bool"
        },
        {
          "indexed": false,
          "internalType": "string",
          "name": "evidence",
          "type": "string"
        },
        {
          "indexed": false,
          "internalType": "uint256",
          "name": "confidence",
          "type": "uint256"
        }
      ],
      "name": "MarketResolved",
      "type": "event"
    },
    {
      "anonymous": false,
      "inputs": [
        {
          "indexed": true,
          "internalType": "uint256",
          "name": "id",
          "type": "uint256"
        },
        {
          "indexed": true,
          "internalType": "address",
          "name": "user",
          "type": "address"
        },
        {
          "indexed": false,
          "internalType": "uint256",
          "name": "amount",
          "type": "uint256"
        }
      ],
      "name": "RewardClaimed",
      "type": "event"
    },
    {
      "anonymous": false,
      "inputs": [
        {
          "indexed": true,
          "internalType": "uint256",
          "name": "id",
          "type": "uint256"
        },
        {
          "indexed": true,
          "internalType": "address",
          "name": "user",
          "type": "address"
        },
        {
          "indexed": false,
          "internalType": "bool",
          "name": "side",
          "type": "bool"
        },
        {
          "indexed": false,
          "internalType": "uint256",
          "name": "amount",
          "type": "uint256"
        }
      ],
      "name": "StakePlaced",
      "type": "event"
    },
    {
      "inputs": [],
      "name": "PROTOCOL_FEE",
      "outputs": [
        {
          "internalType": "uint256",
          "name": "",
          "type": "uint256"
        }
      ],
      "stateMutability": "view",
      "type": "function"
    },
    {
      "inputs": [
        {
          "internalType": "uint256",
          "name": "_id",
          "type": "uint256"
        },
        {
          "internalType": "bool",
          "name": "_outcome",
          "type": "bool"
        },
        {
          "internalType": "string",
          "name": "_evidence",
          "type": "string"
        },
        {
          "internalType": "uint256",
          "name": "_confidence",
          "type": "uint256"
        }
      ],
      "name": "aiResolve",
      "outputs": [],
      "stateMutability": "nonpayable",
      "type": "function"
    },
    {
      "inputs": [],
      "name": "aiResolver",
      "outputs": [
        {
          "internalType": "address",
          "name": "",
          "type": "address"
        }
      ],
      "stateMutability": "view",
      "type": "function"
    },
    {
      "inputs": [
        {
          "internalType": "uint256",
          "name": "_id",
          "type": "uint256"
        }
      ],
      "name": "claimReward",
      "outputs": [],
      "stateMutability": "nonpayable",
      "type": "function"
    },
    {
      "inputs": [
        {
          "internalType": "string",
          "name": "_question",
          "type": "string"
        },
        {
          "internalType": "string",
          "name": "_category",
          "type": "string"
        },
        {
          "internalType": "uint256",
          "name": "_durationHours",
          "type": "uint256"
        },
        {
          "internalType": "uint256",
          "name": "_minStake",
          "type": "uint256"
        }
      ],
      "name": "createMarket",
      "outputs": [
        {
          "internalType": "uint256",
          "name": "",
          "type": "uint256"
        }
      ],
      "stateMutability": "nonpayable",
      "type": "function"
    },
    {
      "inputs": [],
      "name": "getAllMarkets",
      "outputs": [
        {
          "components": [
            {
              "internalType": "uint256",
              "name": "id",
              "type": "uint256"
            },
            {
              "internalType": "string",
              "name": "question",
              "type": "string"
            },
            {
              "internalType": "string",
              "name": "category",
              "type": "string"
            },
            {
              "internalType": "uint256",
              "name": "deadline",
              "type": "uint256"
            },
            {
              "internalType": "address",
              "name": "creator",
              "type": "address"
            },
            {
              "internalType": "enum PredictionMarket.Status",
              "name": "status",
              "type": "uint8"
            },
            {
              "internalType": "bool",
              "name": "outcome",
              "type": "bool"
            },
            {
              "internalType": "string",
              "name": "aiEvidence",
              "type": "string"
            },
            {
              "internalType": "uint256",
              "name": "yesPool",
              "type": "uint256"
            },
            {
              "internalType": "uint256",
              "name": "noPool",
              "type": "uint256"
            },
            {
              "internalType": "uint256",
              "name": "createdAt",
              "type": "uint256"
            },
            {
              "internalType": "uint256",
              "name": "minStake",
              "type": "uint256"
            }
          ],
          "internalType": "struct PredictionMarket.Market[]",
          "name": "",
          "type": "tuple[]"
        }
      ],
      "stateMutability": "view",
      "type": "function"
    },
    {
      "inputs": [
        {
          "internalType": "uint256",
          "name": "_id",
          "type": "uint256"
        }
      ],
      "name": "getMarket",
      "outputs": [
        {
          "components": [
            {
              "internalType": "uint256",
              "name": "id",
              "type": "uint256"
            },
            {
              "internalType": "string",
              "name": "question",
              "type": "string"
            },
            {
              "internalType": "string",
              "name": "category",
              "type": "string"
            },
            {
              "internalType": "uint256",
              "name": "deadline",
              "type": "uint256"
            },
            {
              "internalType": "address",
              "name": "creator",
              "type": "address"
            },
            {
              "internalType": "enum PredictionMarket.Status",
              "name": "status",
              "type": "uint8"
            },
            {
              "internalType": "bool",
              "name": "outcome",
              "type": "bool"
            },
            {
              "internalType": "string",
              "name": "aiEvidence",
              "type": "string"
            },
            {
              "internalType": "uint256",
              "name": "yesPool",
              "type": "uint256"
            },
            {
              "internalType": "uint256",
              "name": "noPool",
              "type": "uint256"
            },
            {
              "internalType": "uint256",
              "name": "createdAt",
              "type": "uint256"
            },
            {
              "internalType": "uint256",
              "name": "minStake",
              "type": "uint256"
            }
          ],
          "internalType": "struct PredictionMarket.Market",
          "name": "",
          "type": "tuple"
        }
      ],
      "stateMutability": "view",
      "type": "function"
    },
    {
      "inputs": [
        {
          "internalType": "uint256",
          "name": "_id",
          "type": "uint256"
        },
        {
          "internalType": "address",
          "name": "_user",
          "type": "address"
        }
      ],
      "name": "getUserStakes",
      "outputs": [
        {
          "internalType": "uint256",
          "name": "yes",
          "type": "uint256"
        },
        {
          "internalType": "uint256",
          "name": "no",
          "type": "uint256"
        }
      ],
      "stateMutability": "view",
      "type": "function"
    },
    {
      "inputs": [],
      "name": "marketCount",
      "outputs": [
        {
          "internalType": "uint256",
          "name": "",
          "type": "uint256"
        }
      ],
      "stateMutability": "view",
      "type": "function"
    },
    {
      "inputs": [
        {
          "internalType": "uint256",
          "name": "",
          "type": "uint256"
        }
      ],
      "name": "markets",
      "outputs": [
        {
          "internalType": "uint256",
          "name": "id",
          "type": "uint256"
        },
        {
          "internalType": "string",
          "name": "question",
          "type": "string"
        },
        {
          "internalType": "string",
          "name": "category",
          "type": "string"
        },
        {
          "internalType": "uint256",
          "name": "deadline",
          "type": "uint256"
        },
        {
          "internalType": "address",
          "name": "creator",
          "type": "address"
        },
        {
          "internalType": "enum PredictionMarket.Status",
          "name": "status",
          "type": "uint8"
        },
        {
          "internalType": "bool",
          "name": "outcome",
          "type": "bool"
        },
        {
          "internalType": "string",
          "name": "aiEvidence",
          "type": "string"
        },
        {
          "internalType": "uint256",
          "name": "yesPool",
          "type": "uint256"
        },
        {
          "internalType": "uint256",
          "name": "noPool",
          "type": "uint256"
        },
        {
          "internalType": "uint256",
          "name": "createdAt",
          "type": "uint256"
        },
        {
          "internalType": "uint256",
          "name": "minStake",
          "type": "uint256"
        }
      ],
      "stateMutability": "view",
      "type": "function"
    },
    {
      "inputs": [
        {
          "internalType": "uint256",
          "name": "",
          "type": "uint256"
        },
        {
          "internalType": "address",
          "name": "",
          "type": "address"
        }
      ],
      "name": "noStakes",
      "outputs": [
        {
          "internalType": "uint256",
          "name": "",
          "type": "uint256"
        }
      ],
      "stateMutability": "view",
      "type": "function"
    },
    {
      "inputs": [
        {
          "internalType": "uint256",
          "name": "_id",
          "type": "uint256"
        }
      ],
      "name": "raiseDispute",
      "outputs": [],
      "stateMutability": "nonpayable",
      "type": "function"
    },
    {
      "inputs": [
        {
          "internalType": "uint256",
          "name": "_id",
          "type": "uint256"
        },
        {
          "internalType": "bool",
          "name": "_side",
          "type": "bool"
        }
      ],
      "name": "stake",
      "outputs": [],
      "stateMutability": "payable",
      "type": "function"
    },
    {
      "inputs": [
        {
          "internalType": "uint256",
          "name": "",
          "type": "uint256"
        },
        {
          "internalType": "address",
          "name": "",
          "type": "address"
        }
      ],
      "name": "yesStakes",
      "outputs": [
        {
          "internalType": "uint256",
          "name": "",
          "type": "uint256"
        }
      ],
      "stateMutability": "view",
      "type": "function"
    }
  ],
  "bytecode": "0x608060405234801561001057600080fd5b50604051611d9a380380611d9a83398101604081905261002f91610054565b600480546001600160a01b0319166001600160a01b0392909216919091179055610084565b60006020828403121561006657600080fd5b81516001600160a01b038116811461007d57600080fd5b9392505050565b611d07806100936000396000f3fe6080604052600436106100dd5760003560e01c8063ae169a501161007f578063e06d8ad111610059578063e06d8ad114610266578063e354ea781461029e578063eb44fdd3146102d6578063ec9790821461030357600080fd5b8063ae169a50146101ec578063b0772d0b1461020c578063b1283e771461022e57600080fd5b806339b6ee19116100bb57806339b6ee1914610161578063512f1b7a14610181578063a5c1674e146101b9578063abe50f19146101d957600080fd5b80630b4501fd146100e25780630dd22ee11461010a57806314ce783d1461012c575b600080fd5b3480156100ee57600080fd5b506100f7600281565b6040519081526020015b60405180910390f35b34801561011657600080fd5b5061012a610125366004611597565b610319565b005b34801561013857600080fd5b5061014c6101473660046115f9565b6104e2565b60408051928352602083019190915201610101565b34801561016d57600080fd5b506100f761017c366004611635565b610522565b34801561018d57600080fd5b506100f761019c3660046115f9565b600260209081526000928352604080842090915290825290205481565b3480156101c557600080fd5b5061012a6101d43660046116b3565b610867565b61012a6101e73660046116cc565b61091f565b3480156101f857600080fd5b5061012a6102073660046116b3565b610b3e565b34801561021857600080fd5b50610221610d2c565b604051610101919061184e565b34801561023a57600080fd5b5061024e6102493660046116b3565b61103f565b6040516101019c9b9a999897969594939291906118b0565b34801561027257600080fd5b506100f76102813660046115f9565b600360209081526000928352604080842090915290825290205481565b3480156102aa57600080fd5b506004546102be906001600160a01b031681565b6040516001600160a01b039091168152602001610101565b3480156102e257600080fd5b506102f66102f13660046116b3565b611248565b604051610101919061194d565b34801561030f57600080fd5b506100f760005481565b6004546001600160a01b0316331461036b5760405162461bcd60e51b815260206004820152601060248201526f27b7363c9020a4903932b9b7b63b32b960811b60448201526064015b60405180910390fd5b600085815260016020526040812080549091036103bd5760405162461bcd60e51b815260206004820152601060248201526f13585c9ad95d081b9bdd08199bdd5b9960821b6044820152606401610362565b60006004820154600160a01b900460ff1660028111156103df576103df61173e565b1461041f5760405162461bcd60e51b815260206004820152601060248201526f105b1c9958591e481c995cdbdb1d995960821b6044820152606401610362565b806003015442101561046a5760405162461bcd60e51b8152602060048201526014602482015273111958591b1a5b99481b9bdd081c995858da195960621b6044820152606401610362565b600481018054861515600160a81b0261ffff60a01b1990911617600160a01b1790556005810161049b848683611a00565b50857f4a13e2994355e66e87c42c4d0f4c964b5ad63cc41afb419d0f3a2c66e8e77d2a868686866040516104d29493929190611aea565b60405180910390a2505050505050565b60008281526002602090815260408083206001600160a01b03851680855290835281842054868552600384528285209185529252909120545b9250929050565b6000856105625760405162461bcd60e51b815260206004820152600e60248201526d22b6b83a3c9038bab2b9ba34b7b760911b6044820152606401610362565b6001831015801561057557506122388311155b6105b45760405162461bcd60e51b815260206004820152601060248201526f24b73b30b634b210323ab930ba34b7b760811b6044820152606401610362565b683635c9adc5dea0000082101561060d5760405162461bcd60e51b815260206004820152601f60248201527f4d696e696d756d20626574206d757374206265203e3d20313030302053484d006044820152606401610362565b6000806000815461061d90611b2d565b919050819055905060405180610180016040528082815260200189898080601f016020809104026020016040519081016040528093929190818152602001838380828437600092019190915250505090825250604080516020601f8a01819004810282018101909252888152918101919089908990819084018382808284376000920191909152505050908252506020016106ba86610e10611b46565b6106c49042611b63565b815233602082015260400160008152600060208083018290526040805180830182528381528185015260608401839052608084018390524260a085015260c09093018790528482526001808252929091208351815590830151909182019061072c9082611b76565b50604082015160028201906107419082611b76565b506060820151600382015560808201516004820180546001600160a01b039092166001600160a01b031983168117825560a0850151926001600160a81b03191617600160a01b8360028111156107995761079961173e565b021790555060c0820151600482018054911515600160a81b0260ff60a81b1990921691909117905560e082015160058201906107d59082611b76565b50610100820151600682015561012082015160078201556101408201516008820155610160909101516009909101556000818152600160205260409081902060030154905182917ff9a2e61c6954c7c1cdd45413e0488ca515bca71b77468f4de6e7fea6e556335e91610854918c918c918c918c919033908c90611c36565b60405180910390a2979650505050505050565b6000818152600160208190526040909120906004820154600160a01b900460ff1660028111156108995761089961173e565b146108d95760405162461bcd60e51b815260206004820152601060248201526f139bdd081c995cdbdb1d9959081e595d60821b6044820152606401610362565b60048101805460ff60a01b1916600160a11b179055604051339083907f84a477df8a28a4276ca6dee4458a06c3015f30c477d9c949ede4e13ff8a552b490600090a35050565b600082815260016020526040812080549091036109715760405162461bcd60e51b815260206004820152601060248201526f13585c9ad95d081b9bdd08199bdd5b9960821b6044820152606401610362565b60006004820154600160a01b900460ff1660028111156109935761099361173e565b146109d25760405162461bcd60e51b815260206004820152600f60248201526e26b0b935b2ba103737ba1037b832b760891b6044820152606401610362565b80600301544210610a165760405162461bcd60e51b815260206004820152600e60248201526d13585c9ad95d08195e1c1a5c995960921b6044820152606401610362565b8060090154341015610a605760405162461bcd60e51b815260206004820152601360248201527242656c6f77206d696e696d756d207374616b6560681b6044820152606401610362565b8115610ab35734816006016000828254610a7a9190611b63565b9091555050600083815260026020908152604080832033845290915281208054349290610aa8908490611b63565b90915550610afb9050565b34816007016000828254610ac79190611b63565b9091555050600083815260036020908152604080832033845290915281208054349290610af5908490611b63565b90915550505b604080518315158152346020820152339185917fa3879d551ba45a0604aaa4a7c6a8ddb76bfbbc80492db9657cc2b9abbe6d0280910160405180910390a3505050565b6000818152600160208190526040909120906004820154600160a01b900460ff166002811115610b7057610b7061173e565b14610bac5760405162461bcd60e51b815260206004820152600c60248201526b139bdd081c995cdbdb1d995960a21b6044820152606401610362565b60008060008360040160159054906101000a900460ff1615610bfa57505050600082815260026020908152604080832033845290915281208054600684015460078501549390925591610c28565b5050506000828152600360209081526040808320338452909152812080546007840154600685015493909255915b60008311610c6b5760405162461bcd60e51b815260206004820152601060248201526f4e6f2077696e6e696e67207374616b6560801b6044820152606401610362565b6000610c778284611b63565b9050600083610c868387611b46565b610c909190611c86565b905060006064610ca1600284611b46565b610cab9190611c86565b90506000610cb98284611ca8565b604051909150339082156108fc029083906000818181858888f19350505050158015610ce9573d6000803e3d6000fd5b5060405181815233908a907f24b5efa61dd1cfc659205a97fb8ed868f3cb8c81922bab2b96423e5de1de2cb79060200160405180910390a3505050505050505050565b60606000805467ffffffffffffffff811115610d4a57610d4a611967565b604051908082528060200260200182016040528015610d8357816020015b610d706114c3565b815260200190600190039081610d685790505b50905060015b6000548111611039576000818152600160208181526040928390208351610180810190945280548452918201805491840191610dc49061197d565b80601f0160208091040260200160405190810160405280929190818152602001828054610df09061197d565b8015610e3d5780601f10610e1257610100808354040283529160200191610e3d565b820191906000526020600020905b815481529060010190602001808311610e2057829003601f168201915b50505050508152602001600282018054610e569061197d565b80601f0160208091040260200160405190810160405280929190818152602001828054610e829061197d565b8015610ecf5780601f10610ea457610100808354040283529160200191610ecf565b820191906000526020600020905b815481529060010190602001808311610eb257829003601f168201915b50505091835250506003820154602082015260048201546001600160a01b0381166040830152606090910190600160a01b900460ff166002811115610f1657610f1661173e565b6002811115610f2757610f2761173e565b81526004820154600160a81b900460ff1615156020820152600582018054604090920191610f549061197d565b80601f0160208091040260200160405190810160405280929190818152602001828054610f809061197d565b8015610fcd5780601f10610fa257610100808354040283529160200191610fcd565b820191906000526020600020905b815481529060010190602001808311610fb057829003601f168201915b50505091835250506006820154602082015260078201546040820152600882015460608201526009909101546080909101528261100b600184611ca8565b8151811061101b5761101b611cbb565b6020026020010181905250808061103190611b2d565b915050610d89565b50919050565b6001602081905260009182526040909120805491810180546110609061197d565b80601f016020809104026020016040519081016040528092919081815260200182805461108c9061197d565b80156110d95780601f106110ae576101008083540402835291602001916110d9565b820191906000526020600020905b8154815290600101906020018083116110bc57829003601f168201915b5050505050908060020180546110ee9061197d565b80601f016020809104026020016040519081016040528092919081815260200182805461111a9061197d565b80156111675780601f1061113c57610100808354040283529160200191611167565b820191906000526020600020905b81548152906001019060200180831161114a57829003601f168201915b50505060038401546004850154600586018054959692956001600160a01b038316955060ff600160a01b840481169550600160a81b90930490921692916111ad9061197d565b80601f01602080910402602001604051908101604052809291908181526020018280546111d99061197d565b80156112265780601f106111fb57610100808354040283529160200191611226565b820191906000526020600020905b81548152906001019060200180831161120957829003601f168201915b505050505090806006015490806007015490806008015490806009015490508c565b6112506114c3565b60008281526001602081815260409283902083516101808101909452805484529182018054918401916112829061197d565b80601f01602080910402602001604051908101604052809291908181526020018280546112ae9061197d565b80156112fb5780601f106112d0576101008083540402835291602001916112fb565b820191906000526020600020905b8154815290600101906020018083116112de57829003601f168201915b505050505081526020016002820180546113149061197d565b80601f01602080910402602001604051908101604052809291908181526020018280546113409061197d565b801561138d5780601f106113625761010080835404028352916020019161138d565b820191906000526020600020905b81548152906001019060200180831161137057829003601f168201915b50505091835250506003820154602082015260048201546001600160a01b0381166040830152606090910190600160a01b900460ff1660028111156113d4576113d461173e565b60028111156113e5576113e561173e565b81526004820154600160a81b900460ff16151560208201526005820180546040909201916114129061197d565b80601f016020809104026020016040519081016040528092919081815260200182805461143e9061197d565b801561148b5780601f106114605761010080835404028352916020019161148b565b820191906000526020600020905b81548152906001019060200180831161146e57829003601f168201915b505050505081526020016006820154815260200160078201548152602001600882015481526020016009820154815250509050919050565b6040518061018001604052806000815260200160608152602001606081526020016000815260200160006001600160a01b031681526020016000600281111561150e5761150e61173e565b815260200160001515815260200160608152602001600081526020016000815260200160008152602001600081525090565b8035801515811461155057600080fd5b919050565b60008083601f84011261156757600080fd5b50813567ffffffffffffffff81111561157f57600080fd5b60208301915083602082850101111561051b57600080fd5b6000806000806000608086880312156115af57600080fd5b853594506115bf60208701611540565b9350604086013567ffffffffffffffff8111156115db57600080fd5b6115e788828901611555565b96999598509660600135949350505050565b6000806040838503121561160c57600080fd5b8235915060208301356001600160a01b038116811461162a57600080fd5b809150509250929050565b6000806000806000806080878903121561164e57600080fd5b863567ffffffffffffffff8082111561166657600080fd5b6116728a838b01611555565b9098509650602089013591508082111561168b57600080fd5b5061169889828a01611555565b979a9699509760408101359660609091013595509350505050565b6000602082840312156116c557600080fd5b5035919050565b600080604083850312156116df57600080fd5b823591506116ef60208401611540565b90509250929050565b6000815180845260005b8181101561171e57602081850181015186830182015201611702565b506000602082860101526020601f19601f83011685010191505092915050565b634e487b7160e01b600052602160045260246000fd5b6003811061177257634e487b7160e01b600052602160045260246000fd5b9052565b6000610180825184526020830151816020860152611796828601826116f8565b915050604083015184820360408601526117b082826116f8565b9150506060830151606085015260808301516117d760808601826001600160a01b03169052565b5060a08301516117ea60a0860182611754565b5060c08301516117fe60c086018215159052565b5060e083015184820360e086015261181682826116f8565b610100858101519087015261012080860151908701526101408086015190870152610160948501519490950193909352509192915050565b6000602080830181845280855180835260408601915060408160051b870101925083870160005b828110156118a357603f19888603018452611891858351611776565b94509285019290850190600101611875565b5092979650505050505050565b60006101808e83528060208401526118ca8184018f6116f8565b905082810360408401526118de818e6116f8565b606084018d90526001600160a01b038c166080850152905061190360a084018b611754565b88151560c084015282810360e084015261191d81896116f8565b915050856101008301528461012083015283610140830152826101608301529d9c50505050505050505050505050565b6020815260006119606020830184611776565b9392505050565b634e487b7160e01b600052604160045260246000fd5b600181811c9082168061199157607f821691505b60208210810361103957634e487b7160e01b600052602260045260246000fd5b601f8211156119fb57600081815260208120601f850160051c810160208610156119d85750805b601f850160051c820191505b818110156119f7578281556001016119e4565b5050505b505050565b67ffffffffffffffff831115611a1857611a18611967565b611a2c83611a26835461197d565b836119b1565b6000601f841160018114611a605760008515611a485750838201355b600019600387901b1c1916600186901b178355611aba565b600083815260209020601f19861690835b82811015611a915786850135825560209485019460019092019101611a71565b5086821015611aae5760001960f88860031b161c19848701351681555b505060018560011b0183555b5050505050565b81835281816020850137506000828201602090810191909152601f909101601f19169091010190565b8415158152606060208201526000611b06606083018587611ac1565b905082604083015295945050505050565b634e487b7160e01b600052601160045260246000fd5b600060018201611b3f57611b3f611b17565b5060010190565b8082028115828204841417611b5d57611b5d611b17565b92915050565b80820180821115611b5d57611b5d611b17565b815167ffffffffffffffff811115611b9057611b90611967565b611ba481611b9e845461197d565b846119b1565b602080601f831160018114611bd95760008415611bc15750858301515b600019600386901b1c1916600185901b1785556119f7565b600085815260208120601f198616915b82811015611c0857888601518255948401946001909101908401611be9565b5085821015611c265787850151600019600388901b60f8161c191681555b5050505050600190811b01905550565b60a081526000611c4a60a08301898b611ac1565b8281036020840152611c5d81888a611ac1565b604084019690965250506001600160a01b03929092166060830152608090910152949350505050565b600082611ca357634e487b7160e01b600052601260045260246000fd5b500490565b81810381811115611b5d57611b5d611b17565b634e487b7160e01b600052603260045260246000fdfea26469706673582212203973e86c74b640e9bbed3788b93513f030e1d0e3b8e4a709c594d4b372ca14ac64736f6c63430008140033",
  "linkReferences": {},
  "deployedLinkReferences": {}
}